{
    "contractName": "C",
    "abi": [
        {
            "inputs": [
                {
                    "internalType": "uint256",
                    "name": "x",
                    "type": "uint256"
                }
            ],
            "name": "f",
            "outputs": [],
            "stateMutability": "pure",
            "type": "function"
        }
    ],
    "bytecode": "6080604052348015600f57600080fd5b5060b28061001e6000396000f3fe6080604052348015600f57600080fd5b506004361060285760003560e01c8063b3de648b14602d575b600080fd5b603c6038366004604e565b603e565b005b60008111604b57604b6066565b50565b600060208284031215605f57600080fd5b5035919050565b634e487b7160e01b600052600160045260246000fdfea26469706673582212202c79381c0412caaa914acbea5d40398d67d71be3aefd9dea70799139fef073b364736f6c63430008090033",
    "sourcePath": "d:/coding_programs/BlockChain/cDapp2_POL/contracts/Pol.sol",
    "compiler": {
        "name": "solc",
        "version": "0.8.9+commit.e5eed63a"
    },
    "functionHashes": {
        "f(uint256)": "b3de648b"
    },
    "gasEstimates": {
        "creation": {
            "codeDepositCost": "35600",
            "executionCost": "87",
            "totalCost": "35687"
        },
        "external": {
            "f(uint256)": "257"
        }
    }
}